:10000000A6EF02F00000000000EF00F0000000008A
:0A0010000000000000000000F3D71C
:08001C000AAE029E000E120064
:100024000B840BAE1DEF00F0010E036E026A016A31
:0A003400006A0A360232FF0E1200C5
:0E003E00026A016A006A086A036A000E120074
:10004C000C6A0E6A0250D8A43FEF00F001C002F017
:10005C0000C001F0006A0E860250D8A43FEF00F0F9
:10006C0001C002F0016A0E960E880250D8B451EF0E
:10007C0000F00E50035ED8A4D8A056EF00F0D89034
:10008C0002BE5BEF00F0003601360236032E46EF5F
:10009C0000F056EF00F0010E0C6ECBDF5EEF00F0BF
:1000AC00020E0C6EB9DF5EEF00F0040E0C6EB0DFCA
:0200BC00120030
:1000BE000B800BAE6BEF00F0026A0AAEFF0E026E03
:0C00CE00016E006E0A360232FF0E1200B6
:1000DA000B820BAE77EF00F00368026801680068D4
:0800EA000A360232FF0E12007B
:0800F2000B6A0B86FF0E1200E1
:1000FA000450000A12E10550000A0FE10650000AF6
:10010A000CE10750000A09E1FF0E006EFF0E016EB6
:10011A007F0E026EFF0E036EA4D0086A096A0750AA
:10012A00D8B428EF01F00350D8B42CEF01F00250F4
:10013A0006180A6E028E068E0E6A02C008F001C008
:10014A000CF000C00DF004500D5E0550D8A0053C1F
:10015A000C5E0650D8A0063C085E086A0C6A0D6A56
:10016A00D8A0BFEF00F0D890023201320032083234
:10017A00010E0E6E0750035ED8A0CCEF00F07E0E83
:10018A000E240326D8B030EF01F0D2EF00F07E0E35
:10019A000E240326D8A034EF01F0180E0B6E0D368C
:1001AA000C3608360036013602360E360450005E2A
:1001BA000550D8A0053C015E0650D8A0063C025E58
:1001CA0006340E120EA0EDEF00F00D80F8EF00F0ED
:1001DA00045000260550D8B0053C01260650D8B078
:1001EA00062802260D900B2ED4EF00F01EEF01F028
:1001FA00D8900036013602360E360450005E05509D
:10020A00D8A0053C015E0650D8A0063C025E063422
:10021A000E10010B0D26D8B00C2AD8B4082AD8A47F
:10022A001EEF01F008320C320D32032AD8B430EF37
:10023A0001F00AAE089E0850026E0C50016E0D5075
:10024A00006E36EF01F0010E4FDF36EF01F0020EBD
:10025A00F1DE36EF01F0040E3BDF36EF01F0080E57
:04026A00DCDE1200C4
:10026E00086A096A000E07620364BCEF01F00250CF
:10027E0006180A6E075003267E0ED8A04DEF01F029
:10028E00035ED8B0C0EF01F051EF01F0035ED8A0CD
:10029E00C4EF01F0028E068E02C00EF001C00BF00C
:1002AE0000C00DF000500402F4CF0CF00150050216
:1002BE00F4CF00F0F3CF08F00402F3500C26F45004
:1002CE000822000E00220D500502F3500C26F450A9
:1002DE000822000E002202500402F3500826F450A9
:1002EE00002202500502016A000E0122F350002680
:1002FE00F45001220D500602F3500826F45000224D
:10030E00026A000E012202220B500602F350002652
:10031E00F4500122000E02220E500602F350012666
:10032E00F450022202BEA4EF01F008360036013668
:10033E0002360306D8B4C4EF01F0B7EF01F0D8804F
:10034E00800E08640030000E002201220222D8A086
:10035E00B7EF01F0023201320032034AC0EF01F072
:10036E000AAE029E000EC6EF01F0010E61DEC6EF70
:10037E0001F0020EABDEC6EF01F0040E4CDE1200F1
:10038E0000C008F00150006E016A026A036A0B6A2F
:10039E000C6A016A026A036A960E036E0A6A00AE5E
:1003AE00DFEF01F0081E001E082AD8B4002A0A8EBC
:1003BE0000C001F008C000F0086A026A40DE1200B8
:1003CE000B6A0350D8B42DEF02F002500A6E028E63
:1003DE008E0E035E03AE31EF02F0036C080E035C6B
:1003EE00D8A00CEF02F0036E013602C001F0026AD3
:1003FE00080E035CD8A00CEF02F0036E0136016A02
:10040E000350D8A4D89016EF02F00350D8B416EFCC
:10041E0002F0D89002320132032E10EF02F00BBC24
:10042E0001A023EF02F0D8A023EF02F0012AD8B4E6
:10043E00022A02BE40EF02F00AAE45EF02F0021EA3
:10044E00011E012AD8B4022A45EF02F0026A016A9F
:10045E0045EF02F00B800BAE49EF02F0026A0AAED6
:10046E0049EF02F0FF0E026E016E0A36023249EFBC
:10047E0002F0010E0C6E1CDE4BEF02F0000E0C6E45
:10048E004BEF02F0FF0E0C6E0150006E0250016E2B
:02049E0012004A
:1004A0000900F5CFE6FF0006FBE10106F9E11200C5
:1004B000CF6ACE6A8182820E0C6EDD0E0D6E0D2E1D
:1004C000FED70C2EFCD700000000819281B401D031
:1004D000FDD7010ECD6E81A401D0FDD7CD6ACFCF5F
:1004E00001F0006ACE500012000E011200C017F099
:1004F00001C018F04CDF890E046ED20E056E5E0E40
:10050000066E790E076EB3DE000E046E000E056EE9
:10051000000E066E800E076EF0DD59DF00C015F08C
:0605200001C016F01200FC
:100526008380839283948386330E0B6EBB0E0C6E90
:10053600DF0E0D6E0D2EFED70C2EFCD70B2EFAD726
:060546000000000012009D
:10054C000A0E156E166A95909592959495969392BF
:10055C0093849590959295949596200ECD6EA2DFEE
:10056C008390838283848396800E006E800E16188F
:10057C00005C02E1155005080FE2839083828384AE
:10058C008396820E0C6EDD0E0D6E0D2EFED70C2E8C
:10059C00FCD7000000000BD0C0DF820E0C6EDD0E0D
:1005AC000D6E0D2EFED70C2EFCD700000000D7D7F9
:0205BC00FFD767
:020000040030CA
:0D000100220F0EFFFF81FF0FC00FE00F4028
:00000001FF
